/*
 *
 *  *
 *  *  * Software Name : Compose
 *  *  * SPDX-FileCopyrightText: Copyright (c) Orange SA
 *  *  * SPDX-License-Identifier:  MIT
 *  *  *
 *  *  * This software is distributed under the MIT License,
 *  *  * see the "LICENSE.txt" file for more details or https://spdx.org/licenses/MIT.html
 *  *  *
 *  *  * <Authors: optional: authors list / see CONTRIBUTORS>
 *  *
 *
 */

module.exports.blocks = {
  list: [
    {
      "number": "0x32",
      "hash": "0x9919a1779d2ec7eeae403128fc573624d6ab927ba73c7014c9627994ce54ec7e",
      "parentHash": "0x313b167b2f0eeaf470b1ea2b04ef78e805e89b6d8e39c179e80d54195d51c550",
      "nonce": "0x0000000000000000",
      "sha3Uncles": "0x1dcc4de8dec75d7aab85b567b6ccd41ad312451b948a7413f0a142fd40d49347",
      "logsBloom": "0x00000000000000000000000000000000000000000000000000000000000000000000000000000000000000000000000000000000000000000000000000000000000000000000000000000000000000000000000000000000000000000000000000000000000000000000000000000000000000000000000000000000000000000000000000000000000000000000000000000000000000000000000000000000000000000000000000000000000000000000000000000000000000000000000000000000000000000000000000000000000000000000000000000000000000000000000000000000000000000000000000000000000000000000000000000000",
      "transactionsRoot": "0x56e81f171bcc55a6ff8345e692c0f86e5b48e01b996cadc001622fb5e363b421",
      "stateRoot": "0x3dd00118e523d961473e04c847e936af429952535e34d9f9005fe0834bcc0dc6",
      "receiptsRoot": "0x56e81f171bcc55a6ff8345e692c0f86e5b48e01b996cadc001622fb5e363b421",
      "author": null,
      "miner": "0x283c714b9d58173e5f89c2f0d9476a92cf9ac9f4",
      "mixHash": "0x63746963616c2062797a616e74696e65206661756c7420746f6c6572616e6365",
      "difficulty": "0x1",
      "totalDifficulty": "0x33",
      "extraData": "0xf90148a00000000000000000000000000000000000000000000000000000000000000000f85494283c714b9d58173e5f89c2f0d9476a92cf9ac9f4942d1d60dd4fdb77bc71cdeb62bade4a3606929ced944b3cc96cc615ab4d46ac0bc8fff5cb4fa77cac92947303144c5f64cee173569f2b884a22fdae835155808400000000f8c9b841b81dd8c76aa391c4ea9418ecd2335c4c8f5dde7b8ebd9b8090989df6f196dd6814dabea8fcdf76b864819dd154d2723beecfa4f2bb0ade61b253d4de1dcfd2dc00b841add97a1afae87084317b34d5fc56ce343205b1ef63ea81ee399cd51a6f11d50c0e795133aba37252eaa096962dbfd2b028878f70a38e3aa496bc783624792cc201b841c261b038b185df9a29e7d53c7a5ec0de7173d5f467938421cc75bd3eef7c0c2c7aacd1ac3fdda706f657d29e402087b0417c88d232693259126131c3b3da80c000",
      "size": "0x349",
      "gasLimit": "0xa00000",
      "gasUsed": "0x0",
      "timestamp": "0x62161826",
      "uncles": [],
      "baseFeePerGas": null
    }
  ]
}
